:400000000010002011000000291500002915000010B501F091FA0000F7B572B680220021D200584802F0F5FC80220024D2000021554802F0EEFCFF252200544E1036534BD8
:40004000E15853000F00294052185100013101337118AF43F318019101998B4207D0591E0978C9190800197802330170F4E70434102CE4D1F022464B12051A60454A464B94
:400080003C211A609923454A1B041360444A454D1360454A30201360444A13608022444B92051A60434A13788B4328390B431370414A023113780B431370BD223F4BA931EF
:4000C0001A6080223E4BD2021A603E4B1960FF233D490B603D490B603D493E4B196082213D4B19603D493E4B196002213D4B19603D4B093119603D4B043119602B681343D5
:400100002B6002F0BDF93A4A3A4B3B491A6030223A4B09201A603A4B103A1A60394B01321C60394B1A60394B103A1A608022384B12061A6080231B032B60364A364B1A60CB
:40014000364A374B1A60374A374B1A60374B384A1360384A136002F03DF9092002F066F9354A364B1A600622354B1A600823354A136011681942FCD10120324B186001F017
:40018000B5F9F7BD00300F4000400F40B82E000000000140FFF000800C00014000500F4010500F4000010B4020500F4030500F4038500F4001700F4000700F40000004402A
:4001C00008000440180004400001044018010440B62549000802044000030440B123C900080304401803044000040440180404400600008004010B40B92600000C02024004
:400200001402024018020240200202402C02024008010B40FE00008000000240FE0000C04000024005000080800002402F0000800400024044000240FF0F000008020B40BD
:400240000C020B4010020B4010B5064C2378002B07D1054B002B02D0044800E000BF0123237010BD5001002000000000242A0000084B10B5002B03D00749084800E000BF43
:4002800007480368002B00D110BD064B002BFBD09847F9E70000000054010020242A0000C00000200000000010B5012001F03AFA054B06491A7801321A705A6801328A4258
:4002C00000D900225A6010BD6C010020E703000010B5054801F046FA002001F0EFF901F013FA01F025FA10BDA90200000020044A1378834202D0013B137001307047C04606
:400300006C010020014B58687047C0466C01002010B501F097FB01F0C1FD0022384B1A60384B394A1A60394A5A60394A9A60394ADA60394A1A61394A5A61394A9A61394A90
:40034000DA61394A1A62394A5A62394A9A62394ADA62394A1A63394A5A63394A9A63394ADA63394A1A64394A5A64394B394A1A60394A5A60394A9A60394ADA60394A1A610E
:40038000394A5A61394A9A61394ADA61394A1A62394A5A62394A9A62394ADA62394A1A63394A5A63394A9A63394ADA63394A1A64394A5A64394B3A4A1A603A4A5A603A4A41
:4003C0009A603A4ADA603A4A1A613A4A5A613A4A9A613A4ADA613A4A1A623A4A5A623A4A9A623A4ADA623A4A1A633A4A5A633A4A9A633A4ADA633A4A1A643A4A5A6410BDB4
:4004000000020020E4020020340500203E05002048050020520500205C05002066050020700500207A050020840500208E05002098050020A2050020AC050020B605002028
:40044000C0050020CA050020D4050020DE0500209C020020320500203C05002046050020500500205A050020640500206E05002078050020820500208C050020960500200B
:40048000A0050020AA050020B4050020BE050020C8050020D2050020DC0500200C0200203B04002049040020570400206504002073040020810400208F0400209D04002059
:4004C000AB040020B9040020C7040020D5040020E3040020F1040020FF0400200D0500201B05002029050020F8B5002863D0324C236801332360636801336360A3680133A4
:40050000A360E3680133E360236901332361636901336361A3690133A361E3690133E361236A01332362636A01336362A36A0133A362E36A0133E362236B01332363636BB8
:4005400001336363A36B0133A363E36B0133E363236C01332364636C0133636401F06EFC061E28D1154D286801F09CFA2A681449930059580F881349585813495958097808
:400580008C46018861448F4200DA1E510F49E6588E4202D900210780E150531C112B00D900232B60286801F051FC01F067FC01F081FB074B1860F8BD5402002074010020BC
:4005C0009C020020E40200200C0200207017000008020020014B18687047C0460802002070B5002201250224042007498B5CAB43A34383438B540132122AF7D1FFF788FE8B
:400600000022024B1A7070BD2F0300202E03002070B54B4B1878FFF767FF4A4C237862780133DBB2013223706270002B00D181E000232370FFF7CEFF01220500424B154006
:400640001978914329431970410811400D005978914329435970810811400D009978914329439970C10811400D00D97891432943D970010911400D00197991432943197199
:40068000410911400D005979914329435971810911400D009979914329439971C10911400D00D97991432943D971010A11400D00197A914329431972410A11400D00597A2B
:4006C000914329435972810A11400D00997A914329439972C10A11400D00D97A91432943D972010B11400D00197B914329431973410B11400D00597B914329435973810BC1
:4007000011400D00997B914329439973C10B11400D00D97B91432943D973010C11400D00197C400C914329431974597C10409143084358746378042B01D90023637070BDC1
:400740002E0300202C0300202F030020024B185CC007C00FC0B270472F0300200122014B1A7070472E0300200022014B1A7070472E03002010B50C4B1878032812D802F001
:400780007DF802060A0E012000F01AFF0AE0012000F022FF06E0012000F02AFF02E0012000F032FF10BDC04641030020802030B500220F250124054940428B5CAB432343D8
:4007C00003438B5401320F2AF7D130BD4403002010B50D2806DC0F24034A2140135CA3431943115410BDC0464403002070B52F4C2378022B01D9002300E001330120237012
:4008000000F00EFF012000F017FF012000F020FF012000F029FF002000F0D2FE002000F0DBFE002000F0E4FE002000F0EDFE2078032813D802F022F802060A0E002000F08B
:40084000EFFE0EE0002000F0F7FE0AE0002000F0FFFE06E0002000F007FF02E00023237022E00023124D2B702A78032A1CD8237810499B00CB189B5C0F4A13700F4AD05C61
:400880000007000F05280CD801F0F8FF090B03090B03FFF737FDF423FF33984201DCFFF769FF2B780133DEE770BDC0464303002041030020282A00004203002044030020BC
:4008C00010B5FFF793FF10BD802030B500220F250124054940428B5CAB43234303438B540132212AF7D130BD5703002010B50A2808DC72B60F24044A2140135CA34319436B
:40090000115462B610BDC0465703002070B502281BDC72B6072358434B430C490F25C918012600230A4C0B3000192A40CC5C002C03D0C45CAC43144302E0C45CAC4334436F
:40094000C4540133072BF1D162B670BD382A000057030020014B40011870704753030020044B05491A78802313410A7813430B707047C0465503002079030020002310B5A2
:40098000104C2370217807291AD80F4B1B78DA000E4B3B339B185B5C0D4A13700D4AD35C1B071B0F07D0022B07D1FFF7ABFCF423FF33984201DCFFF7D3FF23780133E0E712
:4009C00010BDC0465503002056030020382B00007803002057030020F8B5284B1A78032A01D9002200E001321A70FF22244C254E227000221878327004281BD801F03EFF0C
:400A0000030507090B00EF2306E0F72304E0FB2302E0FD2300E0FE232370FFF7AFFF1A4B01201A782378002593432370012700F0C5FE01E01A7020E030782841384000F045
:400A4000B1FE012000F0A2FE0135002000F09EFE082DF1D10025012620782841304000F0A1FE012000F092FE0135002000F08EFE082DF1D1002000F0A1FEF8BD56030020AA
:400A800054030020790300205303002010B5FFF7A3FF10BD002310B5044A1370044A1360FFF784FEFFF710FF10BDC046940300209003002070B5012000F0B2FD012000F059
:400AC000BBFD012000F0C4FD012000F0CDFD002000F076FD002000F07FFD002000F088FD002000F091FD012000F068FE0824002000F058FE012000F049FE013C002000F0A1
:400B000045FE002CF3D1FF26012530002041284000F048FE012000F039FE0134002000F035FE082CF1D1002000F048FE70BD000070B5FFF7C5FEFFF7A9FF8C4C2578002DB1
:400B400000D197E0012D00D00DE1894C002021780907090FFFF73CFE217828000909FFF737FE617802200907090FFFF731FE617803200909FFF72CFEA17804200907090F82
:400B8000FFF726FEA17805200909FFF721FEE17806200907090FFFF71BFEE17807200909FFF716FE217908200907090FFFF710FE217909200909FFF70BFE61790A2009078E
:400BC000090FFFF705FE61790B200909FFF700FEA1790C200907090FFFF7FAFDA1790D200909FFF7F5FDE17900200907090FFFF77DFEE17928000909FFF778FE217A02206D
:400C00000907090FFFF772FE217A03200909FFF76DFE617A04200907090FFFF767FE617A05200909FFF762FEA17A06200907090FFFF75CFEA17A07200909FFF757FEE17A58
:400C400008200907090FFFF751FEE17A09200909FFF74CFE0022617B1000FFF757FEA17B28000022FFF752FEE17B00220220FFF74DFE7AE029002800FFF7AAFD2900012091
:400C8000FFF7A6FD29000220FFF7A2FD29000320FFF79EFD29000420FFF79AFD29000520FFF796FD29000620FFF792FD29000720FFF78EFD29000820FFF78AFD2900092068
:400CC000FFF786FD29000A20FFF782FD29000B20FFF77EFD29000C20FFF77AFD29000D20FFF776FD012229002800FFF70FFE012229001000FFF70AFE012229000220FFF738
:400D000005FE01212800FFF7F1FD01210800FFF7EDFD01210220FFF7E9FD01210320FFF7E5FD01210420FFF7E1FD01210520FFF7DDFD01210620FFF7D9FD01210720FFF7B7
:400D4000D5FD01210820FFF7D1FD01210920FFF7CDFD084A136801331360FA229200934203D9012300E00023237070BD940300207C0300209003002010B5C20F084BC40711
:400D800005D40F24101840101A5CA24305E010180F2240101C5C090122401143195410BD7C03002010B5FFF7A1FD10BD10B5FFF7ADFD10BD10B5FFF7CDFD10BD10B500F056
:400DC0007BFD00F031FD10BD074B70B5595C050001F05EFD0400280000F034FDA0B200F037FD00F05BFD70BD9B2B000010B500F01BFD10BD0222044B10B51A7000225A70CD
:400E0000FFF7DCFF10BDC0469803002070B5114C6368002B02D0013B63601AE06278002A15D02178002912D00B4D9200AB1858886060002809D0535D5B00EB18988EFFF70B
:400E4000C3FF63780133637003E0607001E0FFF7CDFF70BD980300209E2B0000022801DC014B18707047C04698030020064A5378002B07D10B2805D80133834003490B42B6
:400E800000D050707047C04698030020A3080000F0B572B6464F47493878474B441CE4B20C701A683B0052077DD50F25434A444E1570444A444D1268D2B232700A70052833
:400EC0005BD8424F01F0DAFC030F233F4B53022A58D13F481C70027000223E4802703E48007808704CE0102A0ED13948394E427030784240AA5C3848327000223A70407816
:400F00001C7008705A703DE000221A7037E0304C5878677887420ED9646822542D48327804786240AA5C02702B485A784068805C013208705A70264A50785A78904221D125
:400F40001A7801321DE0AC2ADED121480272214806787240AA5C02701F4A127A04E01D4800789042D0D1AA220A701C700AE03A781C700A70194B002203E000233B70012245
:400F8000174B1A700978174B104A196013784B40EB5C154913700F230A681A42FCD10422124B1A6002E00A22114B1A7062B6F0BD78010020D0030020CC0F0740CE0300202F
:400FC000E203002040030740D82B0000CD030020B4030020E1030020C0030020A0030020CC0300204002074008030740C00F0740CF03002010B5012000F006FD01220024FC
:401000000B4B0C481A70C9321A72BA3A5A700A4A5C725A60094A0A4B5A6000F08BFC00F065FCFF22074B1A70074B1C7010BDC046C0030020910E0000A1030020D103002049
:40104000B4030020A00300207801002010B5002000F0DAFC10BD0000002310B5314AD356002B02DD013B137022E0002B20D18021FF3313702C4B49021A682C480A431A607D
:401080000F2201681142FCD180201968284A400211401960274B284C196801430F20196021680140FCD1186802401A60234B19700023234AD356002B03DD013B1370012016
:4010C0002CE0002B21D18021FF331370164B49021A6816480A431A600F2201681142FCD180201968124A400211401960114B124C1968014319600F2120680842FCD1196893
:401100000A401A6000F0F2FB0AE0591C08D1FE21002011700B4A1370084B187000F074FC10BDC046CE0300200403074008030740FFFFFEFF0402074008020740780100206D
:40114000CF030020A00300200020044B1A78824202D1FF2201301A707047C046A0030020024B1878434258417047C046CC03002010B500F0C9FB0A22014B1A7010BDC046D1
:40118000CF030020F8B5082001F088FA012001F03BFA72B6FFF79CF862B6FFF77BFCFFF729FEFFF727FF0220FFF758FE0120FFF75DFE0125FFF714FAFFF7D6FAFFF746FF33
:4011C000082001F06BFAC04BC04C1B78052B05D12378002B02D1FFF76DFCE0E0FFF7A8FC2378FF2B13D1002261781000FFF7DEFDA0780A2101F04CFB0022C1B20120FFF7C3
:40120000D5FDA0780A2101F0C9FBC9B24EE0AE4A1078053803284DD801F030FB02142C31AB4F032B2FD9002213211000FFF7BEFD2178002209090120FFF7B8FD0F232178F4
:40124000194033E0462BEED8032600227343A04F1000FB18197BFFF7A9FD237800227343FB18597B0120FFF7A1FD23785E43BF19B97B1BE02F2BD6D8964F613703E0232B80
:40128000D1D8954F71370326002273431000D95DFFF78CFD237800227343FB1859780120FFF784FD23785E43BF19B97800220220FFF77CFD894F00233E003B6030680728B1
:4012C0000EDCE378022103412B4203D12379290003419943FFF750FD336801333360EDE700233B603268052A10DC637910001341083002212B4203D1A379290013419943DF
:40130000FFF73AFD336801333360EBE706233B603268072A0FDC6379901F134102212B4203D1A379290013419943FFF73BFD336801333360ECE700233B603268072A0FDC43
:40134000E379901C134102212B4203D1237A290013419943FFF726FD336801333360ECE700233B603268002A10DC637A100013410A3002212B4203D1A37A290013419943A6
:40138000FFF710FD336801333360EBE74E4B1B78052B01D10023E372E07AFFF70BFDFFF737F9FFF7DBF900F05FFBFFF7D9FE002805D0FEF79BFF002800D101E73BE00C233A
:4013C000474EF370454B30701F007070B070307118603868072819DCFFF7B8F9002802D028003B68984033781843307038680830FFF7ACF9002802D028003B6898407378E4
:4014000018433B68707001333B60E2E70023334A136038680128CCDC1030FFF797F9002802D028003B689840B37818433B68B07001333B60EDE7FFF7E9FCFFF70DFEFFF791
:4014400083FE284E002830D0FA23274A9B00336091791D480170117B2170117A2173507A2071907AA071D07A2072907BA0725078E07090786071D078E071D07B60721079D6
:4014800060705079A070527BE272642905D90220FFF7E4FC207B643805E0002908D00120FFF7DCFC207BFFF7E1FC3368002B01D0013B33603368002B00D081E6FFF758FED6
:4014C000E1239B0033607BE6C40000207C010020D82C0000582D0000D82D000008040020A1030020E4030020D10300200B4A1368002803D0802109060B4301E05B005B08F7
:401500001360074A1368002803D0802189040B4301E004490B4013607047C04680031A4008010B40FFFFFFFD10B501F03DFA03680C2B00D1FEE7FEE7F8B500250F49104B72
:4015400001394A1C14D000221F685C689E68A018B24203D0B858A0500432F8E70200DE68141AA64201D020C2FAE710330139E8E701F020FAFFF706FEFEE7C04601000000B1
:4015800040340000002370B50A480B4C0B4D9A002100032B00D8A95801338150302BF6D1FEF73AFD80220121D20513680B43136070BDC046000000202915000000000000F1
:4015C0001023044900010A689A43D2B2034013430B607047000304407F23044AC00111680B401843C0B210607047C046000204404023044980010A689A43D2B20340134343
:401600000B607047000204402023044940010A689A43D2B2034013430B607047000204402023044940010A689A43D2B2034013430B6070470003044008230449C0000A684D
:401640009A43D2B2034013430B607047000204404023044980010A689A43D2B2034013430B607047000304401023044900010A689A43D2B2034013430B60704700020440AD
:401680008022084B92041A600C22074B1A60074B0B3A1A60064A074B1A600022064B1A607047C046000105402401054038010540DB0300001401054008010540014B80B222
:4016C000186070470801054070B50D000400AC4001F04CF8024B1C6001F04CF870BDC0460800054010B5012401F040F8054A13682343136001F03EF818212000FFF7E4FF89
:4017000010BDC0460000054010B5054C2378002B03D1FFF7B5FF01232370FFF7E3FF10BD90010020014B18607047C046300105408021034A090613680B4313607047C0463D
:401740004400024010B5040001F010F8C021044AA40113688B431C43146001F00BF810BD10E400E010B58024054B64021C60054B0433D8670320FFF7E5FF034B1C6010BDA7
:4017800080E100E00000002000E100E00423044980000A689A43D2B2034013430B607047000204400223044940000A689A43D2B2034013430B607047000204400123044948
:4017C0000A689A43D2B2034013430B607047C04600020440802200210B4BD2041A601A681A600A4A11601A681A600C22084B1A60084B0B3A1A60084B30321A60074B084A09
:401800001360084A13607047C0010540C8010540E4010540F8010540E8010540FFFF0000D4010540CC01054010B500F09FFF0821034A13688B43136000F09CFF10BDC04602
:4018400000000540014B80B218607047D4010540014B80B218607047CC01054070B50D000400AC4000F082FF024B1C6000F082FF70BDC0460800054010B5082400F076FFFA
:40188000054A13682343136000F074FF18212000FFF7E4FF10BDC0460000054010B5054C2378002B03D1FFF795FF01232370FFF7E3FF10BD910100208021034A0906136818
:4018C0000B4313607047C046040002408021064A10B5136809060B4313600B2000F0A6FD00F07CF810BDC0460000074010B5054C2378002B03D100F023F801232370FFF77F
:40190000E5FF10BD9401002010B50B2000F098FD00F06EF8054A0B2013685B005B0813600022034B1A6000F095FD10BD00000740880F0740014B58607047C046940100207C
:40194000164A174B10B51A60012207210024154B0B201A60144B154A1360154A1160154A1360154B1C6000F06BFD21000B2000F03DFD12490B2000F02DFD0422104B1C60D8
:40198000104B1C60104B1C60104B1C60104B1A60104B1C601A68104B1A8010BD0F000001000007402000074007010080000307400403074000020740040207407D2700009A
:4019C000880E0740C80E0740480F0740080F0740C80F0740880F07409C010020024B1A88024B1A607047C0469C010020880F0740034B1A6860231340024A13807047C046E8
:401A0000880F07409C0100200423044980000A689A43D2B2034013430B6070470003044010B5074C2378002B05D100F009F900F047F90123237000F053F800F0FFFA10BDC4
:401A40009E01002010B5FFF7EBFF041E02D100F025FA040000F0F2F90028FBD100F0B6F900F06EF9200010BDF8B50026012734001C256543094BED18094BDB68E3403B42A0
:401A800007D0280000F059F829000600200000F0B3F80134122CEBD13000F8BDF82F00000C04002070B504000126112811D80A4B1036DB68C340DB070BD51C254543074B61
:401AC000ED18280000F039F829000600200000F093F8300070BDC0460C040020F82F0000012370B500240D4E5B420D4D3461F360230000202A7D2533F31829681870012ADC
:401B000006D1E868002803D06A8AC97900F081FF013C23001C351233EAD170BD0C040020FC2F000010B500244A880B88CC809B1A0279934200DDCB8010BDF0B50024050042
:401B4000C36885B0077E0093836801940393436802930A266643039B9E19EB8A9C4215D23A003100009800F065F931003A00029800F0EFF8310001900298FFF7D3FF062FA9
:401B800002D0009B023300930134E2E7019805B0F0BDF7B5CB8A8C68019301234D680969019A561E019626D31A006E88AF79B4460240F61B002A01D13E006644E788BE42AC
:401BC00003D293420AD01A0002E0002A11D000220E78013EF6B20E70002E06D1984310430126002A00D1EE790E705B000A340131D6E79843F7E7FEBD70B5104C0600231855
:401C00001D7D0B7E012B04D12800FFF7C2FF050002E0002000F028FC1F22A3191D757309043316409B001E3AB240E158002D02D191430A0000E00A43E25070BD0C04002036
:401C4000F022F8B5174C52000021200000F0E1FE154B20002380CC231B0163802300134C0222210028331A701231FA322A3000F0C7FE84210E4B89001A0059182300183226
:401C80008A420DD0D6891D0030001468013804D32F78013567720A34F8E79B191C32EFE7F8BDC0460C0400201E020000E82E0000E82F0000014B18697047C0460C040020A6
:401CC0000023024A9380024A136070470C040020D8010020C9B28318062901D000211971520080180288428000221A72704710B50022FFF7EFFF10BD1C235843054B10B5E0
:401D00001B189C681A7E0A234B431100E018FFF7EEFF10BDF82F00001C2370B504004343064AD318DB8A5D1E002B05D029002000FFF7E2FF2B00F6E770BDC046F82F0000AE
:401D400010B51224013C03D32000FFF7E5FFF9E710BDF8B505000800038844881100A34205D26E79E21AB2421DD8002603E000261A1B067201362F79BA420ED8FF252940DA
:401D800006291AD002792402144365431B02EB181A0A1B0C438002710FE06D79AA420CD2002EEBD009E0037A2A7A9A4202D90133037202E00022FFF78DFF0020F8BDD2B2F8
:401DC000062A01D00B88038070470000F8B50E4C0E4B9C4217D00A26E5890D4B6E43EF180A3E7F00002D0CD02368227C99196068062A00D0C019FFF7E2FF013D0A3E023F58
:401E0000F0E71C3CE4E7F8BDDC310000E42F0000FFFFFF7FD2B210B5062A0AD03023D0220C885C4303885343E3181B0A9BB203800B8010BD10B5FFF7EDFF10BD024B986862
:401E4000802318407047C0460C04002010B58024094A640293681C401123002C09D1103B112806D8D268C2401A4202D000F066FA2300180010BDC0460C040020064B10B557
:401E80009C6880235B021C401120002C02D100F0DFF9200010BDC0460C0400200C4B10B59C68802311201C4011D12000FFF7CEFF002809D1074B112C02D001221A7000E0A2
:401EC0001870FFF7DBFF02E00134122CEDD110BD0C040020DC010020F0B5062007240D4B0D4927001A1F1568DE682A68B2432A609E7D1D68B7402A68BA430700B7403A4304
:401F00002A605D681E692A681C33B2432A608B42E7D1F0BDF4310000EC33000010B5114C63780133DBB263706078C0B2FFF78EFF6378002805D1112B00D12070FFF79EFF8E
:401F40000FE0094A0006112B05D19168074B0B401843906005E093681B021B0A18439060DDE710BDDC0100200C0400207FFFFF008021084A0138136809065B005B08136097
:401F800013681B0C1B041843106013680B4313607047C046000002408021084A0138136809065B005B08136013681B0C1B041843106013680B4313607047C046400002406C
:401FC000F8B51C26094C23000025163B1F6823789D4206D230006843381800F07FF90135F5E7034B1C349C42EDD1F8BD0E300000063200000B000121994002030139121AB0
:40200000C0238A4205D3FF22504388429B415B429B01D8B27047000070B5064C064E25681C3429886889FFF7E5FF2873A642F6D170BDC046FC2F0000F43100000F2070B500
:402040000B4CF02223680B4D834319002B7803400B4393431A002B78834313432360FFF7DBFFFFF739FF00F015F8002070BDC04600FF084062F1FF0FC02210B5044C236857
:402080009343034308002360FFF786FF10BDC046C800002010B5FFF793FF094A094B1A60094A0A4B11680B40C021C9000B431360074B084A1B681343074A136010BDC046EA
:4020C000000200010800084010000140FFF0FFFFC80000202008E8810400084070B505000A4C00F043FB2268094B0A491A400A4B09681B78C9184E7AEB183604597A33000C
:402100000B431343236000F035FB70BD0800084000FF80FFF0050020E833000010B5064B1A781C235343054AD3185B685989187BFFF7A2FF10BDC046DD010020F82F0000AF
:40214000012302889340024A013B1B0453607047C8000020F7B500F009FB1E4C1E4B22681E4E1343019033601D4B1E4D28331878FFF7FEFE80211C4A0906136827205B001F
:402180005B08136013680B4313602F6800F0E4FA164B174A3B4013432B60E2230821154AFF331068084202D1013B002BF9D12F602268114B0F201343336000F037F96F20C9
:4021C00000F0CAFA62680D4B01981A6000F0D2FAF7BDC046C80000202008E881040008400C040020080008404000024000E8FFBFF0060040100008402018E8810C00084090
:4022000010B5044A044B91680B439360FFF7A2FF10BDC0460C04002080000100F8B50400077E857E00F0A2FA0F22BA40266807213368A94093431A000423BB406468134389
:4022400022688A432260336000F094FAF8BD0000F8B51C24124F134D3B78134E6343EB185868002333703A78317862430A334B43AA189268D3180D4A1360FFF72FFF3B78BB
:402280003078634344435859094B00191860FFF7C5FF084800F08AF8FFF7B2FFF8BDC046DD010020F82F0000DE010020F0050020EC050020912700001C2302005A434B4367
:4022C000044910B55058C018034B1860FFF7A6FF10BDC046F82F0000EC0500200F2270B50168857E0400007E0B68824093430B6000F03CFA0722AA4061680B6893431A00C1
:402300000623AB4013430B6000F034FA0122607EA16882400B6893430B6070BD10B5054C2378012B05D1044B1868FFF7D7FF0023237010BDDF010020EC050020F8B51C242E
:402340002300070043430D4DFFB2EB185E68FFF7E5FF0B4B1F701A781B785443094A615911607F22084988689043034330008B60FFF7E6FEFFF7D2FEF8BDC046F82F000048
:40238000DD010020EC0500200C04002010B5040000F0ECF9044AA40713689B009B081C43146000F0E7F910BD0CE400E010B58024054B24021C60054BD8670320FFF7E6FF66
:4023C000034B1C6010BDC04680E100E00000002000E100E01F2800D901BE034B8000C318186819607047C04640000020F8B504000E00032900D901BE1F2C00D901BE0327F0
:4024000025003D40BD400635AF40AE4000F0AEF9A408054BA400E4182368BB431E43266000F0A8F9F8BDC04600E400E01F2318401E3B8340014A13607047C04600E100E040
:402440001F2318401E3B8340014A13607047C04680E100E01F2318401E3B8340014A13607047C04680E200E001BE704710B5034B1B7B584300F070F910BDC046D0000020A1
:40248000F0B5050087B000F071F9EB1E049003932D2B5CD8314B1B789D4204D8304B1C78304BE4B21EE0304B1B789D4204D82F4B1C782F4BE4B215E02E4B1B789D4204D897
:4024C0002D4B1C782D4BE4B20CE02D4B1B789D4204D82C4B1C782C4BE4B203E02B4B1C782B4BE4B21B78EA1EDBB20193294B2A4F9A5C059302922F2A04D92A2D02D919268D
:402500003E6008E03F233E681E40029BB34205D2214B029A1A60052000F01EF91C4B1F4AED182B780520DBB213601D4B019A1C601C4B1A60FFF79AFF029BB34208D9059BF9
:40254000039A05209B5C3B6000F006F900E001BE049800F00FF907B0F0BDC046C0F1FF0FC1F1FF0FC2F1FF0FC3F1FF0FC4F1FF0FC5F1FF0FC6F1FF0FC7F1FF0FC8F1FF0FA0
:40258000C9F1FF0FCAF1FF0FCBF1FF0FCCF1FF0FCDF1FF0FE93300002CFF0B4028FF0B401CFF0B4020FF0B408021034A090613680B4313607047C04604010B4010B500F05A
:4025C000D5F8C021034A090213680B43136000F0D1F810BD00010B4010B5802400F0C6F80749084B0A68E4011A4022430A600A6813408022120213430B6000F0BBF810BDE1
:4026000000010B40FF3FFFFF10B50400FFF7CCFF0C4B1A6822431A60E20703D5022219681142FCD0E20504D58022920019681142FCD0E20304D58022920219681142FCD023
:4026400010BDC04610020B4070B5050000F08EF80E4B04001A68C0231B02134011D10C480C49054028000E680B4A3240104308600A68012B01D1FFF7A1FF200000F07AF8E0
:4026800070BDFFF7A9FF0123E9E7C04600010B400404040010020B40FBFBFBFF044B054A196810400843186019681142FCD1704710020B4008080800042270B5224C23686D
:4026C000134213D021490B6813420CD0204BDD6908681540A8430860D9699143D9611B69002B00D098470420FFF7AEFF80232268DB001A4215D015490A681A420DD0144AA6
:40270000D56908682B4098430860D169114B0B40D3615369002B00D098478020C000FFF793FF80232268DB021A420CD0074A12681A4204D0064B9B69002B00D0984780209E
:40274000C002FFF781FF70BD10020B40E4000020E0010020FFFBFFFF0230800804D0C0460138FDD1C046C046C0467047EFF3108072B6704780F310887047C046034B10B50A
:402780001B68002B00D0984710BDC04698010020F8B51C242B4E2C4A33782C4D63439B58012228782A4F604318182A4B39681A60294B1A68294B1B785B005A52284B294A0E
:4027C0001B681343284A1360FFF788FD337832781D4862438218927D2978013ADBB28A421BD96343C31858682B780133DBB22B7033782A785C43144B1C190A235343A268E2
:40280000D3183B60FFF76AFC30782978C0B2C9B2FFF752FDFFF79EFC13E000232B70134B134A98681349127801409960012A02D1FFF774FB05E0104A02409A60DA880132AC
:40284000DA80F8BDDD010020F82F0000DE010020F0050020140008400C000840E8330000C80000202008E881040008400C040020DC010020FFFFFEFF7FFFFEFF02B4714670
:4028800049084900095C49008E4402BC7047C046002243088B4274D303098B425FD3030A8B4244D3030B8B4228D3030C8B420DD3FF22090212BA030C8B4202D3121209029C
:4028C00065D0030B8B4219D300E0090AC30B8B4201D3CB03C01A5241830B8B4201D38B03C01A5241430B8B4201D34B03C01A5241030B8B4201D30B03C01A5241C30A8B42A7
:4029000001D3CB02C01A5241830A8B4201D38B02C01A5241430A8B4201D34B02C01A5241030A8B4201D30B02C01A5241CDD2C3098B4201D3CB01C01A524183098B4201D31F
:402940008B01C01A524143098B4201D34B01C01A524103098B4201D30B01C01A5241C3088B4201D3CB00C01A524183088B4201D38B00C01A524143088B4201D34B00C01AB9
:402980005241411A00D20146524110467047FFE701B5002000F006F802BDC0460029F7D076E770477047C046014B18687047C046480100200E4B70B500251E000D4CE41A36
:4029C000A410A54204D0AB00F35898470135F8E700F024FD084B00251E00084CE41AA410A54204D0AB00F35898470135F8E770BD2834000028340000283400003034000087
:402A0000002310B59A4203D0CC5CC4540133F9E710BD03008218934202D019700133FAE7704700000000000000010E0E06090807050203040D0A0B0C0101010101010000C8
:402A40000101000000000101000101000101010101000001000101000001010100010100010101000101010101010101000000000101010101010101010101000101010129
:402A800001000101010000010101010101000001010100000101010100010100000101010101000000010101000000010100010100010101010001010101000101000101EB
:402AC00000010101000001000101010000000001010000000000010000000001000000000001010100000000000000000000000000010101000000000000000000000100C4
:402B0000010001000001010100010101010101010001010000010101010101000001010000000001000101000101000101000000010101010000010101000000010101016D
:402B4000010001010100010100000000000000000000000000000000000000000000000101010001010000000000000000000000000000191A1B1C1D1E1F09121314151619
:402B80001718080B0C0D0E0F10110704030A06092020200500010220202020010802000000000100C800000032000200C800000000000100BC02000000000200C800000014
:402BC00032000100C8000000000001002C0100000000000004012201005EBCE2613FDD83C29C7E20A3FD1F419DC3217FFCA2401E5F01E3BD3E6082DC237D9FC1421CFEA098
:402C0000E1BF5D0380DE3C62BEE0025CDF81633D7C22C09E1D43A1FF4618FAA427799BC584DA3866E5BB5907DB856739BAE406581947A5FB7826C49A653BD987045AB8E6B4
:402C4000A7F91B45C6987A24F8A6441A99C7257B3A6486D85B05E7B98CD2306EEDB3510F4E10F2AC2F7193CD114FADF3702ECC92D38D6F31B2EC0E50AFF1134DCE90722C74
:402C80006D33D18F0C52B0EE326C8ED0530DEFB1F0AE4C1291CF2D73CA947628ABF517490856B4EA6937D58B5709EBB536688AD495CB2977F4AA4816E9B7550B88D6346A34
:402CC0002B7597C94A14F6A8742AC896154BA9F7B6E80A54D7896B352C2C2C2C2C012C2C022C2C032C2C2C2C2C012C2C022C2C03150F23130F23220F230E0E1F0D1C1D1F3C
:402D0000231A2122230B221A0E1C0D0E00010E00020E00030E00040E00050E00060E00070E00080E00090E01000E01010E01020E01030E01040E01050E01060E01070E0124
:402D4000080E01090E02000E02010E02020E02030E02040E02050E02060E02070E02080E02090E03001A2C001A2C010F2C000F2C011D2C001D2C01222C00222C01222C02D1
:402D80000D2C000D2C01232C00232C01212C01212C02212C03212C04212C050A2C000A2C011F2C001F2C011F2C021F2C031F2C042C0D2C2C0C2C2C0A2C2C2C2C2C2C012C4F
:402DC0002C022C2C032C2C042C2C052C2C062C2C072C2C082C2C090100140101140102140103140104140105140106140107140108140109140200140201140202140203CA
:402E0000140204140E1C0D0E00010E00020E00030E00040E00050E00060E00070E00080E00090E01000E01010E01020E01030E01040E01050E01060E01070E01080E0109BF
:402E40000E02000E1F21220A1C2C2C2C2C2C002C2C012C2C022C2C032C2C042C2C051A2C001A2C010F2C000F2C011D2C001D2C01222C00222C01222C020D2C000D2C0123EF
:402E80002C00232C01212C01212C02212C03212C04212C050A2C000A2C011F2C001F2C011F2C021F2C031F2C040D2C020D2C030D2C040D2C0500000004320F4002330F401D
:402EC00003420F4007430F40B880BE40D804DF0118018C016C407008DC0361028C488D029480A408D802E4080C121213170C0E0E10121416180E0D0E0F110C007D003C1EAC
:402F00001402050E020000000D00A500502819020515020000000D009B004B2818020516020000000D009B004B2818020517020000000D0096004B281402051A0200000013
:402F40000D006E00371E1402050F040000000D006E00371E14020510040000000D006E00371E14020511040000000D006E00371E14020512040000000E0096004B2314022B
:402F80000516040000000F00F000783C28020518040000000F000401824128020519040000000F00040182412802051D040000000F00F000783C28020510080000000F00A1
:402FC000BE005F2D1E020510080000000F00AF0055281E020511080000000F00C80064321E02051208000000100018018C462D020513080000000000F03100003604002060
:4030000032050020C2010020D501002001000100010100000C320000440400203C050020C0010020D40100200100010001010000283200005204002046050020BE01002061
:40304000D30100200100010001010000443200006004002050050020BC010020D20100200100010001010000603200006E0400205A050020BA010020D101002001000100A3
:40308000010100007C3200007C04002064050020B8010020D00100200100010001010000983200008A0400206E050020B6010020CF0100200100010001010000B4320000AD
:4030C0009804002078050020B4010020CE0100200100010001010000D0320000A604002082050020B2010020CD0100200100010001010000EC320000B40400208C050020D0
:40310000B0010020CC010020010001000101000008330000C204002096050020AE010020CB010020010001000101000024330000D0040020A0050020AC010020CA0100206A
:40314000010001000101000040330000DE040020AA050020AA010020C901002001000100010100005C330000EC040020B4050020A8010020C8010020010001000101000020
:4031800078330000FA040020BE050020A6010020C701002001000100010100009433000008050020C8050020A4010020C60100200100010001010000B03300001605002001
:4031C000D2050020A2010020C50100200100010001010000CC33000024050020DC050020A0010020C40100200100010001010000000001400800044000000440040004401F
:40320000F000000002000000040103001000014008040440000404400404044000F00000080000000C03090010000140080404400004044004040440F00000000200000028
:4032400004010300100001400804044000040440040404400F0000000100000000000000000001400800044000000440040004400F00000001000000000000000000014097
:40328000080004400000044004000440000F000004000000080206000000014008000440000004400400044000F00000080000000C03090000000140080004400000044019
:4032C0000400044000000F001000000010040C00000001400800044000000440040004400000F0002000000014050F0000000140080004400000044004000440000000F0ED
:40330000800000001C071500040001400801044000010440040104400F000000010000000000000004000140080104400001044004010440F000000002000000040103008B
:4033400004000140080104400001044004010440000F000004000000080206000400014008010440000104400401044000F00000080000000C030900040001400801044048
:40338000000104400401044000000F001000000010040C00040001400801044000010440040104400000F0002000000014050F0004000140080104400001044004010440C8
:4033C0000000000F400000001806120004000140080104400001044004010440000000F0800000001C07150000030405060708090A0B0C0E0F101112131415161718191B36
:403400001C1D1E1F2021222325262728292A2B2E2F3031323334354300000000F8B5C046F8BC08BC9E4670477102000085150000F8B5C046F8BC08BC9E46704749020000C5
:4034400050340000C000002090000000A804000000000000050000000008C0010000FF0F010000000000E02EC05D00001800000000366E01040404000000000000000000DB
:4034800000000000000000000000000000000000000000000000000017340000000000000000000000000000000000000000000000000000000000000000000000000000C1
:4034C000000000000000000000000000000000000000000000000000E8000020000000000000000000000000000000000000000000000000000000000000000000000000C4
:40350000000000000000000000000000000000000000000000000000000000000000000000000000000000000000000000000000000000000000000000000000000000008B
:40354000000000000000000000000000000000000000000000000000000000000000000000000000000000000000000000000000000000000000000000000000000000004B
:40358000000000000000000000000000000000000000000000000000000000000000000000000000000000000000000000000000000000000000000000000000000000000B
:4035C00000000000000000000000000000000000000000000000000000000000000000000000000000000000000000000000000000000000000000000000000000000000CB
:0200000490303A
:02000000664F49
:0200000490402A
:1000000000000000000000000000000000000000F0
:0200000490501A
:0C0000000002041A11931100042977E299
:0200000490600A
:0100000001FE
:00000001FF